:020000040800F2
:1000000048280020D5000008591F000831190008B1
:1000100000000000000000000000000000000000E0
:100020000000000000000000000000009123000814
:10003000000000000000000031210008A13E00087F
:10004000E7000008E7000008E7000008E7000008F4
:10005000E7000008E7000008E7000008E7000008E4
:1000600000000000E7000008E7000008E7000008C3
:10007000F5110008E7000008E7000008E7000008A5
:10008000E7000008E7000008E700000800000000A3
:10009000E7000008E7000008E7000008E7000008A4
:1000A000E7000008E7000008E7000008ED4200084C
:1000B00079440008E700000800000000000000008C
:1000C0000348854600F0D4FD00480047615300080E
:1000D000482800200448804704480047FEE7FEE720
:1000E000FEE7FEE7FEE7FEE751410008C100000819
:1000F00030B50B46014600202022012409E00D46C0
:10010000D5409D4205D31D469540491B2546954047
:1001100040191546521E002DF1DC30BDF0B51FB45C
:100120000646002082B005464024019100901BE065
:10013000019922460F46304600F0DAFB049A059BEF
:10014000801A994110D310461946224600F0C0FB90
:10015000361A8F410197224601200021009F00F0AE
:10016000B7FB38184D4100902046641E0028DFDCA4
:10017000019B00982946324607B0F0BD03460B4369
:100180009B0703D009E008C9121F08C0042AFAD24D
:1001900003E00B780370401C491C521EF9D27047D3
:1001A000D2B201E00270401C491EFBD2704700220F
:1001B000F6E710B513460A4604461946FFF7F0FF66
:1001C000204610BD30B505462A460B4610781C78EF
:1001D000521C5B1C002801D0A042F7D0002C03D099
:1001E000002802D06D1CEFE7284630BD30B504462C
:1001F0000020034600E05B1C934203D2E05CCD5C30
:10020000401BF8D030BD0321001D401E03781202B0
:100210001A43491EF9D51046704703460322087059
:10022000000A491C521EFAD51846704770B506469A
:1002300004F0D2F9046805460A220021304600F095
:10024000CDFB2C6070BDF8B502464A40D40F420089
:100250004B0052085B089A4202D2024608461146F9
:100260004A0023D0C30D4A00DDB2120EAD1A202D74
:1002700035DA49020126490AF6058A19002C00D010
:10028000524220214F1B1146B9402A411018C20D7D
:100290009A4221D0002C17D0012D08DCDA05801AF3
:1002A000D20F8019D207DBB200F0D8FBF8BDDA0517
:1002B000801A012340001B06C01880185A4280187B
:1002C000CA0F1043490007E04908C2071143DA0585
:1002D000801A80194008801800F0B8FBF8BD610052
:1002E0000122511A001BF7E70122D2075140AAE769
:1002F0000122D2075040A6E7024670B54A40D30F0C
:10030000DB0740002DD04A002AD0010E140E000257
:1003100012020919400A520A8418E501044654439E
:10032000000A120A2E045043A4194219200CC54396
:10033000AA18120C0125AD03521C521912047F3960
:10034000240400D0521C104301D44000491EC2B204
:100350000C06C0092018401C4008802A02D003E087
:10036000002070BD40084000002900DA002018433A
:1003700070BD70B502464A40D50F40004A00ED07F7
:1003800040085208002814D0002A12D0C40DD30D02
:1003900041020120C0055202490A520AE41A091812
:1003A00012187D34914201D3641C00E04900002CF6
:1003B00001DA002070BD0023914201D3891A034362
:1003C000400849000028F7D100290AD0914202D103
:1003D0000121C90705E0914201D2012101E001217B
:1003E000C943E005C018401900F030FB70BD0000A3
:1003F000F0B507460846584087B0C00F0490480043
:100400000E46590040084908BC1A884105D23846B2
:1004100031461E4617460B46024658004008104318
:100420004CD0300D039040055900400D490D05900A
:10043000401A0290402872DA18030121000B0905C6
:100440000843019004980092002805D00199524277
:100450000020884100920190029840210A1A0199D7
:10046000009800F035FA05460C466B4607CB00F0C5
:1004700050FAC0197141039A0E0D0023D717564048
:100480001A467A40164344D0049A002A2DD0029A84
:10049000012A039A15DC1205C01A9141012636057E
:1004A000001C7141D20F059ED20700930192029663
:1004B0002A46234600F018FB07B0F0BD3846314607
:1004C000FAE71605224A0F46B218C01AB7410121B1
:1004D0000905001C4F4100187F4111461818794149
:1004E000E20F10436D19644113E0E2076D081543F4
:1004F0006408C2071443039A01261205C01A9141E9
:100500003605001C7141CE07400830434908C01829
:1005100051412A46234600F0DAFACDE7FFE7049876
:1005200001224000C117121A00238B410498314662
:10053000C417381AA141EEE730B40124E407634040
:1005400030BC55E730B40124E407614030BC4FE7CC
:100550000000E0FFF0B51FB488B00B9909980024A3
:1005600048400999C00F490049080991C0070B99F3
:100570000090490049080B9109990898A64608433C
:100580001CD00B990A98084318D009980124400000
:10059000420D4800410D099824050003000B20433B
:1005A00009900B980003000B20430B9050181C4936
:1005B0004018002201901446104605E00020014634
:1005C0000DB0F0BD032801DA034600E003239C468A
:1005D000C11A0AAE0AE05F0008ADED5B4F00F75BA1
:1005E0007D430027AA187C41491C5B1E6145F2DD52
:1005F000410004AB5A522104120C0A43240C401C43
:100600000828DFDB01980290009970460191009064
:10061000059B049A0799069800F066FAD0E7000057
:100620000DFCFFFFF0B50C465C4085B0E40FE4071D
:1006300003944C0000266408590094464908024679
:100640000296224321D062460A431ED06200570D13
:100650004A000E032303550D012402462C492405AC
:10066000781B1B0B360B4018234326436146009032
:100670001C46501AB44103D30098401C009002E07D
:10068000921800985B41002803DA0020014605B06B
:10069000F0BD0020012109050746864611E06446A9
:1006A0001D46141BB54106D36546521BB341744623
:1006B00007430C43A646CD07400849082843921833
:1006C0005B4105460D43EAD11046184313D06046FE
:1006D000194650407140084306D06046101AB34195
:1006E00006D20122002306E000220123DB0702E0FC
:1006F0000122D2435310009874460105381C614111
:10070000029C039D0019694100F0E1F9BFE7000078
:10071000FD03000010B500229623114600F09EF95B
:1007200010BD00000EB5C217C10F5040CA074018D7
:100730000021054B0293019200910A460B4600F0FE
:10074000D3F903B000BD0000330400000EB5054925
:100750000291002100910A460B46019100F0C4F974
:1007600003B000BD33040000C20F4100400201236A
:10077000400ADB05D207090EC0187F2901DA0020E4
:100780007047962903DC9623591AC84001E0963930
:100790008840002AF4D040427047410040020122C4
:1007A000400AD205090E80187F2901DA002070471F
:1007B000962903DC9622511AC84070479639884022
:1007C0007047000070B5CD0F4A0009030123090BE3
:1007D0001B0519430B4BED070024520D9A4201DA19
:1007E000002070BD074B34339A4203DC9A1A00F0A4
:1007F0007FF802E00449511888402C43F1D0404270
:1008000070BD0000FF030000CDFBFFFF4A0009039D
:100810000123090B1B051943094B10B5520D9A42D0
:1008200001DA002010BD064B34339A4203DC9A1AD9
:1008300000F05EF810BD03495118884010BD00005B
:10084000FF030000CDFBFFFFC20FD20740004008AE
:100850000BD0C10D0723DB01C91840020905400A6E
:100860001143C208400711437047002001467047FA
:1008700010B5002904DB0124E40740428C412146E5
:10088000002B04DB1C460123DB075242A3418B42B1
:1008900000D1824210BD0000CB0FDB07490010B52C
:1008A000490802460A4307D00A0D07240903E40158
:1008B000090B121B002A01DC002010BDC900440FE7
:1008C0000C43C100E018D205801800F0BFF810BD3D
:1008D00010B5202A04DB0146203A9140002010BDCB
:1008E000914020239C1A0346E3401943904010BDD9
:1008F00010B5202A04DB0846203AD040002110BD64
:100900000B46D340D0402024A21A914008431946F8
:1009100010BD10B5202A06DBCB170846203A10413F
:10092000C1170B4306E00B461341D0402024A21A06
:1009300091400843194610BD0FB400B589B00CA909
:1009400000910B990023CB60204B214A069307921C
:10095000042201921F4A02921F4A089202466B46E5
:10096000002000F020FA09B008BC04B0184770B5A8
:1009700086B006460020C0430190002015460C4674
:100980000091029104903246694604A8FFF7D4FF13
:10099000034604982118002D05D0002801D00A46EE
:1009A00000E022462A6000280DD0002B02DD0098CE
:1009B000884208D0081B0190009432466946029490
:1009C00004A8FFF7B9FF06B070BD0000FD0F0008D6
:1009D0001D100008FFFFFF7F9D0C0008F7B5009C6D
:1009E0000F4600262578641C002D05D000F052F932
:1009F0000068405DC007F5D12B2D02D02D2D18D0F9
:100A0000641E39462046029A00F01AFB002F04D0DB
:100A10003968A14201D10099396071050224002989
:100A20000BDA4042002803DD03F0D6FD0460A00786
:100A3000FEBD012080020643E3E70028F8DA03F058
:100A4000CBFD04600048FEBDFFFFFF7F002904DAF4
:100A5000401C490001D140084000704770B4002498
:100A6000050C05D11024000402D1002921D0112445
:100A7000050E01D100020834050F01D10001241D2B
:100A8000850F01D18000A41C002801DB4000641CFC
:100A9000002908D020252E1B0D46F540A14000D08E
:100AA00001212943084301061B1B000ADB1D02D557
:100AB000002070BC7047DB05181880180029F8DA90
:100AC000401C4900F5D170BC40084000704710B58B
:100AD000002B08DA0024401C614192185B411A4344
:100AE00001D14008400010BDF0B51FB482B00546EA
:100AF0000C0003D0084603F049FD02E003F046FD78
:100B000020300246009021462846FFF7E1FE049B74
:100B1000059A04460F4618431143084314D018465B
:100B200010431BD0009840210A1A18460599FFF778
:100B3000DFFE05460E46009A05990498FFF7C8FEA9
:100B4000084305D0012004E02046394607B0F0BD37
:100B50000020C11705430E432C43374300990E98DC
:100B60006305401A7905E40A00220C43FD0A0A30A5
:100B700002D500200146E9E70105101969410C9CE6
:100B80000D9D00196941FFF7A2FFDFE7F8B50546A3
:100B9000480040080C46284304D06000184A400D25
:100BA000904201DD2846F8BD15493539884210DCF0
:100BB00088420BDB290D200308432903014305D09C
:100BC000E00F1049C00741180020F8BD0020014681
:100BD000F8BD161A4020821B28462146FFF778FEF2
:100BE00007460091284621463246FFF781FE3A46E5
:100BF000009BFFF76CFF3246FFF76AFEF8BD00006E
:100C0000330400000000F03F4A0009030123090BF0
:100C10001B0519430A4B10B5520D9A4202DA002007
:100C2000014610BD064B34339A4203DC9A1AFFF793
:100C30005FFE10BD034BD218FFF74AFE10BD000047
:100C4000FF030000CDFBFFFF10B5002904DB0124EA
:100C5000E40740428C412146002B04DB1C46012363
:100C6000DB075242A341994200D1904210BD0000DF
:100C7000064C0125064E05E0E36807CC2B430C3CEF
:100C800098471034B442F7D3FFF71EFA745E000899
:100C9000945E000800487047705E000810B5044676
:100CA000FFF7F8FF0068005DC007C00F10BD00002F
:100CB000FFB5087885B01546FF2805D0491C2D28BA
:100CC00004D00022002407E000240BE00122F9E711
:100CD0000A235C430419491C0878FF28F8D1002A2C
:100CE00000D06442002001902A7801462D2A01D0CC
:100CF0002B2A04D16D1C2D2A0DD000220192002632
:100D00002F78FF2F09D00A2200236D1C00F0EBF989
:100D100038187141F4E70122F0E7089AA21803920B
:100D200002460A430DD00024B24AB14D2646009235
:100D300000F026FA049003980291002807DA47424F
:100D40001AE0002105980A4606C009B0F0BD074622
:100D500012E0F80707D022462B4630460099FFF7ED
:100D6000F9FB0646009122462B4610461946FFF72E
:100D7000F1FB04460D467F10002FEAD10398009B3B
:100D8000002802990498324602DAFFF74BFC01E092
:100D9000FFF7E0FB019A002A02D00122D20751405E
:100DA000059A03C2D1E7FFB591B000200990002554
:100DB000ED432E209E685C681F460190B9696D1C4A
:100DC000129888470090396A88470028F6D1009821
:100DD000401C0AD00D20C0018443002E12DD009873
:100DE0002B2809D02D280DD103E00020C04315B0D9
:100DF000F0BD012080020443B9696D1C1298884738
:100E0000761E009003A9600501D52D2000E02B205F
:100E10006A461073491C0CA80F9102900AE0B96948
:100E20006D1C1298884700900120400204431398DB
:100E3000761E0560002E02DD00983028EFD0019963
:100E40000098884246D18020044308E00998401E5B
:100E500009900120400204431399681C0860B96995
:100E60006D1C761E1298884700903028EED031E035
:100E70000199884205D1200603D480200443761EC0
:100E80001EE0009803F076FC002826D001204002E6
:100E9000044307A90F980331761E88420BD20098AD
:100EA0000F99303808700F98401C0F90200607D516
:100EB0000998401E03E0200602D40998401C0990BE
:100EC000A00502D51399681C0860B9696D1C1298B9
:100ED00088470090002ECBDC59E0002E57DD0098AB
:100EE000652801D0452852D1A00550D50320000225
:100EF0008443B9696D1C761E129888470090002EB5
:100F00000CDD2B2804D02D2808D1FF20013004430C
:100F1000B9696D1C12988847761E0090E00501D5CE
:100F20002D2100E02B21029801700298401C0290B4
:100F3000019025E00120400204430EA902980131EE
:100F4000761E88420ED20098029930380006000EB4
:100F5000087003D10299019881420AD90298401C75
:100F6000029006E0E00501D5234801E02248404216
:100F70000990B9696D1C1298884700901398056014
:100F8000002E04DD009803F0F5FB0028D2D1F969AA
:100F9000129888470F99FF200870029903AA0870D9
:100FA00000200A900B900CA90AA8099BFFF780FE6D
:100FB000A00502D40120C04319E72420044209D02F
:100FC000E00713D138680B9A0A99031D3B6000684B
:100FD00006C00BE00B990A98FFF75EFC0146E0079C
:100FE00004D13868021D3A60006801602846FEE6B8
:100FF000000024400000F03FF1D8FFFF4268002AC3
:1010000008D001680B78491C002B03D0521E06C083
:10101000184670470121C160881E70474268002A47
:101020000BD0C3680168002B07D183688B4204D0C2
:10103000491E521C06C0002070470020C043704764
:10104000F7B582B0029C00272078641C15460197F2
:10105000302802D0002D15D015E020780127641C1F
:10106000782804D0582802D0002D09D00BE0002D9C
:1010700001D0102D07D1002710252078641C02E034
:10108000082500E00A250026009610E000990127B7
:1010900069430818020C294680B2714300908E18EB
:1010A0003804864201D3012001902078641C29462F
:1010B00000F056F80028E9DA0398002805D0002F40
:1010C00001D0641E00E0029C04600198002806D054
:1010D00003F082FA02210160C81E05B0F0BD00993C
:1010E00030040843F9E7F0B51FB486B00020009043
:1010F000019002900698069980B204900798090C16
:1011000002040014114307900027089D09980691D6
:101110003E463C4603900398A9B20204000C03909B
:1011200004982D0C1543484300212246FFF7D0FBBD
:10113000C719714110340E46402CECDB3846029A38
:10114000FFF7C6FB009A019B801800905941029856
:101150000191103002904028CCDB00980BB0F0BD1C
:101160003A2800D23038202302469A43412A01D33C
:1011700010463738884201D30020C0437047000032
:101180000EB5054A02920022009213460192FFF723
:10119000ABFC03B000BD00003304000070B58C1838
:1011A0000578401C6B075B0F01D10378401C2A11A6
:1011B00006D10278401C03E006780E70401C491CE2
:1011C0005B1EF9D12B0705D40023521E0DD40B70E2
:1011D000491CFAE70378401CCB1A921C03E01D78E7
:1011E0000D70491C5B1C521EF9D5A142D8D30020BA
:1011F00070BD000010B500BF0D4800681021084008
:101200000009002812D000BF10200949086000BF63
:1012100000BF08464068102188430549486000BF68
:1012200003E07D20C00000F085FBFAE710BD000060
:101230000024014008B5002000901F4800F090FBFA
:10124000002836D100BF1C4880681C4908400907A7
:1012500040181949886000BF00BF00BF1648806869
:10126000C00F0028F9D12020009002E00098401E15
:10127000009000980028F9D100BF0F48C0680321F2
:1012800089030840884200D108BD00BF0A48806831
:101290000A490840401C0849886000BF00BF00BFE1
:1012A00005480068C007C00F012148404840002899
:1012B000F5D000BFE8E7000000240140E8FFFF7F11
:1012C000F8B50026771E00BF1148006C80B21149A6
:1012D00009884900104A50520E480088401C80B2CC
:1012E0000C490880142801DB002008800025002418
:1012F00005E060000849085A4519601C84B2142CA6
:10130000F7DB14212846FEF7F3FE04490880F8BDF8
:10131000002401405E00002008020020320000206E
:1013200010B504F005F884B20948844207DB084888
:101330002830844203DA01200649087002E00020C8
:1013400004490870214604A003F010F910BD000004
:10135000EE0C00003F000020566F6C746167653A28
:1013600025640D0A0000000010B503F0E9FD00F04F
:1013700091F902F039FF02F0FFFF02F0A9FC00F042
:10138000C5F8FFF757FF00F055F910BD38B500203C
:101390000090002423E080211B4800F06EFB69468A
:1013A00009784018C1B2684601704021164800F023
:1013B00064FB0146684640780818C1B2684641702F
:1013C000FF2101310520000700F057FB0146684668
:1013D00080780818C1B268468170601CC4B2072CBE
:1013E000D9DB00200CE06946095C022903DC0121FD
:1013F000064A115402E00021044A1154411CC8B2AB
:101400000328F0DB38BD00000004005083000020FA
:1014100070B5A6B00446802106A8FEF7C8FE0426D3
:10142000002501F037FC0546607801281CD1A07822
:10143000002819D12078002816D1294800780028E2
:1014400001D1012000E00020254908700121090395
:10145000244800F067FBC82003F05CFD012109036C
:10146000204800F01EFB39E0A078012802D0207847
:10147000012813D16078002810D1062D0ED001A8C4
:1014800003F05CF8184800681421026901A890472D
:101490000121C903134800F045FB1FE0A078012893
:1014A0001CD12078012819D16078012816D10F4865
:1014B0000078002809D1012109030520000700F068
:1014C000F0FA01200949087008E00121090305200C
:1014D000000700F027FB00200449087026B070BD0B
:1014E0004000002000040050580000208C00002024
:1014F00010B502460020002305E014782418E0B25D
:10150000521C5C1CE3B28B42F7DB10BD38B50220E5
:101510004349C96A0143424AD1621146C96A01403E
:10152000009100BF00BF03213E4A126803464343B7
:101530005C001B199A43034643434B431A43394B00
:101540001A6000BF02210C2000F024FD0C200121B4
:101550008140354A116000BF012040023049496B8B
:1015600001432F4A51631146496B0140009100BF6E
:1015700000BF2E4800F0F4F900281CD1012080079C
:101580002A490969890089080143284A116100BF75
:10159000032080031146C968024691430143234A50
:1015A000D16000BF052011464969C908C90001433F
:1015B000516100BF00BF1D4800F0D2F9002804D0DF
:1015C0001A4800F0D5F9002821D100201749C96830
:1015D0003722920191430143144AD16000BF501455
:1015E0001146C968024691430143104AD16000BFC9
:1015F00040101146C9680246914301430B4AD1602D
:1016000000BF0B484103490B916200BF00BF00BF00
:1016100006484068102108430449486000BF38BDAF
:10162000001002400004005000E100E000240140EE
:101630000002002410B500BF144880680221084051
:10164000400800280ED1114800F092F9002809D175
:1016500000BF0E4880680E490840001D0B49886095
:1016600000BF03E07D20C00000F064F900BF00BFB0
:10167000064800680421084080080028F7D000BF11
:1016800004200249086000BF10BD00000024014092
:10169000E8FFFF7F00B587B0012000F09DFA02202F
:1016A00000F09AFA042000F097FA0F20000301904E
:1016B00001200290002003900490059001A9314878
:1016C00000F05CF90320C00201900120029000208C
:1016D00003900490059001A90520000700F04EF941
:1016E0008120000201900020029003900490059058
:1016F00001A90520000700F041F9C0200190002059
:10170000029003900490059001A91E4800F036F95C
:10171000012109031B4800F005FA0121490319487A
:1017200000F000FA01218903164800F0FBF90121BD
:10173000C903144800F0F6F9C82003F0EBFB0121BF
:101740004903104800F0ADF9012189030D4800F06C
:10175000A8F90121C9030B4800F0A3F901210903ED
:10176000084800F09EF9012109030520000700F058
:10177000D9F90121C9020520000700F092F907B04C
:1017800000BD000000040050012080F3108800BF5D
:1017900003480188002080F3108800BF0846704786
:1017A00032000020F0B58DB004460D461646504874
:1017B000407C002801D1002E7ED000214C4841748D
:1017C0002030007E002801D1002E76D0002148482C
:1017D00020300176C01E03F071FB07910690FFF7E1
:1017E0005BF807463846FEF7D8FF64210790FEF7FE
:1017F0007FFC09913846FEF7D0FF0190FEF78AFF83
:1018000039460290FEF774FD04900998FEF782FFB6
:1018100003900499FEF717FD36490590FEF7A9FDE0
:1018200007903846FEF7B9FF64210490FEF760FC8C
:101830000590FEF76FFF06900799FEF704FD0B90E9
:101840002D490B98FEF758FD0790FEF7A6FF206084
:1018500027482A3003F032FB07910690FFF71CF867
:101860000C900C98FEF799FF64210790FEF740FC5E
:1018700008910C98FEF791FF0190FEF74BFF029044
:101880000C99FEF735FD04900898FEF743FF03908E
:101890000499FEF7D8FC17490590FEF76AFD0790FA
:1018A0000C98FEF77AFF64210490FEF721FC059066
:1018B000FEF730FF069001E014E00CE00799FEF718
:1018C000C2FC0A900C490A98FEF716FD0790FEF735
:1018D00064FF286009E009A002F048FE00202060B3
:1018E000286002E00020206028600DB0F0BD0000FC
:1018F000C0050020000070428096184B47505320CE
:1019000044415441206973206E6F7420757365667D
:10191000756C6C210D0A00000449096901600349D6
:10192000496981600149496A416070474000F81F78
:1019300000BFFEE7044601218903084800F0EEF8E5
:101940000AE001208003054949694140034A516189
:1019500000BF204600F0BCFAF3E70000000400508E
:1019600001468868C007C00F0122504050407047B0
:10197000014688680422104080087047F0B502468E
:101980000B460026002162E00124B4401868204084
:10199000014600295AD0586814680D464D436F001F
:1019A000ED19AC430D464D4345432C43146000BF35
:1019B0005868012802D0586802280DD198689468A8
:1019C0000D464D436F00ED19AC430D464D43454365
:1019D0002C43946000BF00BF1869D4680D464D4386
:1019E0006F00ED19AC430D464D4345432C43D46085
:1019F00000BF5868022829D1FF2911D85869146AF4
:101A00000D464D434D434D432F017D1BAC430D46C9
:101A10004D434D434D4345432C43146200BF15E0F5
:101A20005F69080A40430C0A60430C0A60430401E2
:101A3000241A506AA0430C0A64430D0A6C430D0A31
:101A40006C437C432043506200BF00BF761C186883
:101A5000F040002898D15868012802D05868022820
:101A600009D1DC68186855688543074667433D43DC
:101A7000556000BF00BF0120F0BD0246106908405C
:101A8000884201D1012070470020FCE7024610691E
:101A90000840884201D1012070470020FCE78162A4
:101AA0007047816270478162704730B5046A0B46A7
:101AB0004B434B434B431D01ED1A2346AB430C46AE
:101AC0004C434C434C4354432343036230BD30B535
:101AD000046A0B464B434B434B431D01ED1A23460F
:101AE000AB430C464C434C434C43544323430362A7
:101AF00030BD30B50B0A5B430C0A63430C0A6343E9
:101B00001C01E41A436AA3430C0A64430D0A6C43A4
:101B10000D0A6C4354432343436230BD81617047D7
:101B200081617047816170478161704730B503689A
:101B30000C464C4365006419A3430C464C43544384
:101B40002343036030BD30B503680C464C43650049
:101B50006419A3430C464C4354432343036030BDF4
:101B600010B543688B430C4654432343436010BD78
:101B700030B5C3680C464C4365006419A3430C465A
:101B80004C4354432343C36030BD30B5C3680C4657
:101B90004C4365006419A3430C464C435443234310
:101BA000C36030BD30B583680C464C436500641992
:101BB000A3430C464C4354432343836030BD30B5AC
:101BC00083680C464C4365006419A3430C464C43A0
:101BD00054432343836030BD08B50549C96A0143B6
:101BE000034AD1621146C96A0140009100BF08BD95
:101BF0000010024008B50549C96A0143034AD16291
:101C00001146C96A0140009100BF08BD00100240A2
:101C100010B5044600F036FB2060206800F0FCFAA6
:101C20006060606800F00AFBA060606800F018FB6C
:101C3000E06010BDF8B504460025032C29D12046EC
:101C400000F058F82104401A18D0012804D00228C6
:101C500006D0032811D109E000F014FB054617E077
:101C600000F052F8002800D0214D11E000F054F8A7
:101C7000002801D00125ED030AE000BF00F002FBBF
:101C8000074600F0C9FA064600F0EAFA054600BF2A
:101C900000BF0C2C29D1204600F02CF82104401A5A
:101CA00018D0042804D0082806D00C2811D109E047
:101CB00000F0E8FA054617E000F026F8002800D00A
:101CC0000B4D11E000F028F8002801D00125ED03AC
:101CD0000AE000BF00F0D6FA074600F09DFA06467B
:101CE00000F0ACFA054600BF00BF2846F8BD000072
:101CF0000024F40001460348C06808400A04104369
:101D0000704700004010024002480068042108406B
:101D10008008704700100240034800690121490211
:101D20000840400A704700004010024002484068E6
:101D30000721490308407047001002400449C96860
:101D4000020C914382B21143014AD16070470000F6
:101D50004010024001490860704700003401002033
:101D6000016801221143016070470168202211437C
:101D700001607047F0B585B004460D460027002687
:101D8000204600F06FF8002845D1E96868680843EC
:101D900029690843A96908432168204A114008437A
:101DA0002060A868616803221203914301436160C7
:101DB00000BF6869A168121191430143A16000BF8F
:101DC0001748844204D10320FFF734FF064616E08B
:101DD0001448844204D10C20FFF72CFF06460EE085
:101DE0001148844204D16846FFF712FF029E06E0C4
:101DF0000E48844203D16846FFF70AFF029E002E78
:101E000009D02868002806D00127314620462B68D3
:101E1000AA6900F02FF8384605B0F0BDF369FFEF6E
:101E20000038014000440040004C00400050004099
:101E30000146C869012292051040800D7047014695
:101E4000C86920221040400970470146C8694022F5
:101E50001040800970470146C869012252051040B0
:101E6000400D704701460868C007C00F012250406E
:101E700050407047FEB505460E4617461C460020EA
:101E8000019000900120C003874214D171006208C4
:101E900088182146FEF72CF980B201900A49019872
:101EA0000840009001980007400F009908430090F7
:101EB0000098E86006E0610888192146FEF718F9E5
:101EC00080B2E860FEBD0000F0FF00008162704754
:101ED00008B50A490969009100BF411C002900D0DA
:101EE000401C07E00549096901221204114000293C
:101EF00000D0401E0028F5D108BD000000E000E041
:101F0000F8B504460D4616461F46FF2020701120E6
:101F1000A0701E2060700020E0700E4842680168CA
:101F20008068A2606160E0603A4621461031081D79
:101F3000FFF738FC03F0FCF9208366832577002047
:101F400060771D21601CFFF7D3FAA077F020E077BF
:101F5000F8BD0000FC01002000BF08484069FF21D7
:101F600001310840000A002807D000BF03488069FB
:101F700008430249886100BF00BF7047001002405B
:101F8000C206D20E01219140014A11607047000043
:101F900000E100E010B5002819DA1A4A03071B0F08
:101FA000083B9B089B00D2588307DC0EFF23A3400D
:101FB0009A438B071B0E8407E40EA3401A43114B70
:101FC0000407240F083CA408A4001A5118E00E4A84
:101FD00003231B02D21883089B00D2588307DC0E10
:101FE000FF23A3409A438B071B0E8407E40EA340F4
:101FF0001A43054B032424021B198408A4001A5118
:1020000010BD00001CED00E000E100E010B500286C
:1020100019DA1A4A03071B0F083B9B089B00D2588A
:102020008307DC0EFF23A3409A438B071B0E840714
:10203000E40EA3401A43114B0407240F083CA408E4
:10204000A4001A5118E00E4A03231B02D218830879
:102050009B00D2588307DC0EFF23A3409A438B07D3
:102060001B0E8407E40EA3401A43054B03242402ED
:102070001B198408A4001A5110BD00001CED00E0DB
:1020800000E100E010B5002819DA1A4A03071B0F17
:10209000083B9B089B00D2588307DC0EFF23A3401C
:1020A0009A438B071B0E8407E40EA3401A43114B7F
:1020B0000407240F083CA408A4001A5118E00E4A93
:1020C00003231B02D21883089B00D2588307DC0E1F
:1020D000FF23A3409A438B071B0E8407E40EA34003
:1020E0001A43054B032424021B198408A4001A5127
:1020F00010BD00001CED00E000E100E000BF00BFEB
:1021000000BFBFF34F8F00BF00BF00BF06480749A5
:10211000C86000BF00BF00BFBFF34F8F00BF00BF4C
:1021200000BF00E000BFFDE70400FA0500ED00E09D
:102130007047000008B50EA002F018FA1AA21DA1FF
:102140001FA002F013FA2548C07800902348837836
:102150004278017822A002F009FA27488368426891
:10216000016826A002F002FA01A002F0FFF908BD02
:102170002A2A2A2A2A2A2A2A2A2A2A2A2A2A2A2ABF
:102180002A2A2A2A2A2A2A2A2A2A2A2A2A2A2A2AAF
:102190002A2A2A2A2A2A2A2A2A2A2A2A2A2A2A2A9F
:1021A0002A2A0D0A0000000031383A32343A32321D
:1021B00000000000446563203137203230313700A1
:1021C0002A2052656C656173652044617465203A0C
:1021D0002025732025730D0A000000000200002056
:1021E0002A204657205265763A2025642E25642EF3
:1021F00025642E25640D0A00FC0100202A20485782
:102200002049443A20253038582025303858202598
:102210003038580D0A000000014600BF0548C0686C
:10222000F022104010400009034A125C0846D040DA
:102230007047000000100240CC5D0008014600BF5E
:102240000548C068072212021040000A034A125CC7
:102250000846D0407047000000100240DC5D0008D6
:10226000014600BF0548C0680722D2021040C00ADC
:10227000034A125C0846D04070470000001002403C
:10228000DC5D000810B5002400BF1448C0680C21B4
:102290000840002806D004280CD008280CD00C28B0
:1022A00010D10BE0FFF742FD400B401C01218140A3
:1022B000CC030FE00A4C0DE00A4C0BE000F014F8E0
:1022C000044607E0FFF732FD400B401C012181402E
:1022D000CC0300BF00BF204610BD0000001002402C
:1022E0000024F40000127A00F8B50024002500BF95
:1022F0001448C0680121090408400546002D03D098
:102300000846281A04D101E00F4C03E00F4C01E00D
:102310000D4C00BF00BF00BF0A48C06803218905FB
:102320000840800D461C0748C0680F2189040840FA
:10233000800C0749085C604307463146FDF7D8FE2C
:10234000F8BD0000001002400024F40000127A00E2
:10235000E45D0008074808490860084848600848E4
:1023600088600848C860084808610848486108460D
:1023700070470000752B000830020020773A0008F3
:10238000C93B00084D2B0008A13B0008A1390008FB
:102390007047000070B5184800682030C0794007C9
:1023A000400F421C144800682030007C80263040DA
:1023B000C309114800682030007C06263040002800
:1023C00001D0012000E0002004460B4800682030C6
:1023D000817C094800682030007C1026304010289D
:1023E00001D1022000E000200546D0180019401855
:1023F000401980B270BD0000AC00002070B50546E9
:102400000C46064800882080002004490880228865
:1024100003492846FDF7B2FE70BD0000C000002051
:10242000B8020020F0B58DB001200C90FE48007875
:10243000030002F0C2F80C070887FAF8F7F6F5F483
:10244000F3F2F1F0D2E2F94800682030007C10216C
:102450000840102805D14C21F44800684030017034
:1024600004E00C21F148006840300170E121EF48A0
:102470000068403041700222EC4801684031402041
:1024800001F0BAFB052000F015FBFF210131E848FF
:10249000FDF78DFEE7494868FEF758F90391029071
:1024A000FFF778FF0190FEF751F904460022E24B56
:1024B000FEF750F80646039B029AFEF7B3F8002297
:1024C000DE4B05910490FEF745F80791069003F066
:1024D000A7F90022DA4B09910890FDF789FF0B91CB
:1024E0000A90FEF793F980B2D64908600846006862
:1024F000400809684018D349086008460068D24976
:102500000860D2480068D2490860D2490860A0211A
:10251000C648006820304175C44800682030417DBD
:10252000352001F061FB0020CB490870CB490870D1
:10253000CB490870CB490870CB4908800220BA49C2
:10254000087053E201F086FA01280AD1C2480078E7
:10255000002806D10120C0490870BC480068BD4968
:10256000086001F065FA01281FD1BB4800780128F6
:102570001BD1BA480078002817D10120B74908704C
:1025800000F072FAB94A03C200F044FAB849086090
:1025900000F082FAB7490870AC480068AC4908609E
:1025A000AC4908600320A0490870AC4800780028B6
:1025B00018D1A9480078012814D1A4480068A54979
:1025C0000968401AA049096888420BD90120964938
:1025D000087096480068407B2022104301460D2079
:1025E00001F002FB9D480078002813D19A4800783A
:1025F00000280FD19A48007800280BD19348006832
:1026000093490968401A8F490968884202D9052010
:1026100085490870EAE1E8E1E1E1DAE18BE156E1C0
:102620002EE1F0E0DBE0D1E0FFE78F480088FF21FA
:102630000131884203DD06207B490870D6E101F0B4
:10264000EDF9012855D188480088002816D1854821
:102650000078002812D1754800682030007C802165
:102660000840802804D101217F4801F0FBF905E0F2
:102670006E4800682030807C7B4908807A4800885A
:1026800078490978411A694800682030407D800601
:10269000800E814217DD654A12682032527D910614
:1026A000890E634A6F4B1B78D01801F0DBF95F4845
:1026B00000682030407D8006800E6A490978401805
:1026C0006849087015E0684A1278664B1B78D21A80
:1026D000D1B2574A634B1B78D01801F0C3F9624856
:1026E000007860490978401A5E49097840185D49C8
:1026F000087001F089F9012857D1544800685449FD
:10270000086059480088002833D1564800780028CE
:102710002FD1464800682030007C80210840802866
:1027200004D10121504801F09DF905E03F480068BF
:102730002030807C4C4908804B4A1278494B1B78EA
:10274000D21AD1B23A4A474B1B78D01801F08AF915
:102750004548007843490978401A424909784018A9
:102760004049087001203E49087004202E49087035
:102770001BE03D4A12783B4B1B78D21AD1B22C4A4F
:10278000384B1B78D01801F06DF93748007835497F
:102790000978401A334909784018324908700120F5
:1027A0002F4908700420204908702D48007800281F
:1027B0000BD12648006826490968401A2149096852
:1027C000884202D90520184908700FE100202549E8
:1027D000087001201449087002200C9006E10020C6
:1027E000204908702049088010480068407B20225A
:1027F000104301460D2001F0F7F901200A49087045
:1028000003200C90F2E00020164908701649088059
:1028100006480068407B2022104301460D2001F04D
:10282000E3F90120004927E0B1000020AC000020BE
:10283000B8020020900000200000204000408F409F
:102840000000F03FB4000020B80000208800002005
:10285000D8000020DC000020BC000020BD000020CB
:10286000BE000020C2000020C0000020C8000020E0
:10287000D0000020D4000020087006200C90B5E0A5
:1028800001215C48006840300170202159480068EF
:10289000403041700222574801684031402001F029
:1028A000ABF99821534800682030417551480068C1
:1028B0002030417D352001F097F9032000F0FAF82F
:1028C00008204D49087000204C4908708EE001F046
:1028D000B9F801282ED1474800682030007C8021BB
:1028E0000840802803D10121454801F0A2F944485D
:1028F0000088002808DD42480088402804DC404861
:1029000000784049087002E020203E4908703D48A8
:1029100001783D4801F08DF9384800783949097847
:10292000401836490870394800683949086009205C
:10293000314908705AE001F071F800282ED1304872
:1029400000882E490978401A2E49097888420FDDFF
:102950002D492A4A127888182A49097801F069F91C
:10296000264800782749097840182449087015E05E
:10297000234A1278214B1B78D21AD1B2224A1F4B1C
:102980001B78D01801F055F91D4800781B490978CB
:10299000401A1A49097840181849087001F034F8AB
:1029A000012809D119480068194908600A2012490C
:1029B0000870012000F07EF8144800681449096886
:1029C000401A7D21C900884202D90B200A490870AB
:1029D0000CE000200849087004200C9006E000205C
:1029E0000549087005200C9000E000BF00BF0C985E
:1029F0000DB0F0BDAC000020B1000020C3000020ED
:102A0000E0000020B0000020B80200208800002074
:102A1000E4000020F0B585B00222114801681B31A6
:102A20001B2000F0D4FF0E490968C97E09020C4A38
:102A30001268127F11430846FDF774FE0446FDF745
:102A4000C1FE0190FDF76EFE06460022054BFDF724
:102A500081FD03910290FDF7B5FE05B0F0BD0000C9
:102A6000AC000020A8CB484070B50A48016811317D
:102A7000112000F0A3FF07490968487CFDF766FEB6
:102A80000446002201239B07FDF7CCFD0122D2075B
:102A9000514070BDAC00002010B5054801680C31F4
:102AA0000C2000F08BFF02480068007B401110BD35
:102AB000AC00002070B5044600251448006840783A
:102AC000F8218843124908700846007884421CD0D7
:102AD000032C01D1012500E000250E480078854235
:102AE00004D00C480570284601F0ACF8074800688F
:102AF0004078F82108402043044909684870034899
:102B000000684178012001F06FF870BDAC00002032
:102B1000E8000020E900002001490870704700002B
:102B2000B100002070B504460D46054805800288B6
:102B300021460448FDF722FB07200349087070BDB9
:102B4000E0000020B8020020B100002070B504466B
:102B50000D4607480078002804D129462046FFF793
:102B60004DFC03E02946204600F09AF870BD0000B5
:102B7000660000201CB51D481D4908601D490860FD
:102B800000F046F800F077FF01A9062000F016FFDC
:102B90006946422000F012FF19E017A001F0E6FCA0
:102BA000012109031848FEF7BBFFFF20F53002F0B2
:102BB000B1F9012000031449886200BFFF20F530FD
:102BC00002F0A8F9012189030F48FEF7A9FF684622
:102BD00000796C28E1D101200C4908700846007882
:102BE00000F058FF00F070F81CBD00004802002003
:102BF000AC00002008010020486172642053504955
:102C000020457272210D0A00000400506600002069
:102C100000B587B01C48019000200290022003906C
:102C200000200490059001A91848FEF7A7FE01F0C6
:102C300013F801204003019001A91548FEF79EFEFC
:102C400001208003019001A91148FEF797FE0120A1
:102C5000C003019001A90E48FEF790FE01200190EB
:102C600001A905200007FEF789FE0220019001A9B5
:102C700005200007FEF782FE1020019001A90348FD
:102C8000FEF77CFE07B000BD01020000000400500A
:102C90000008005001480078704700000C01002037
:102CA00070B505460C46064800882080002004497F
:102CB0000880228803492846FDF760FA70BD0000AD
:102CC0000E010020B803002010B500202D49087027
:102CD00000F0D4FB6F222C49012000F078FE202068
:102CE0002A49096808736F222749012000F084FFF0
:102CF0002749086800F010FD2549887900F0DEFDBD
:102D00002349C87900F0C4FB2149087A00F0B2FCDD
:102D10001F49487900F0B2FD1D49487A00F0D8FB00
:102D20001C4800F0FBFD1A49087E00F0C3FC01209E
:102D300000F0ECFB342000F0D1FC15480068164987
:102D400088420DD9802000F04FFC012000F066FC85
:102D500014200F4908710420085600F009FD0CE00A
:102D6000002000F041FC002000F058FC0E20084933
:102D700008710420085600F0FBFC012000F002FC62
:102D800010BD00000C0100204902002008010020B5
:102D9000EC000020FF0300000057A616F0B589B034
:102DA00001200890FE480078030001F006FC0B07A4
:102DB0000873C9FDFCFBFAF9F8F7F9003DE30120BF
:102DC00000F0E0FB9D20F74909684874F548006869
:102DD000417C112000F008FFF348C07A012815D18A
:102DE000F148017BEF48006820300171ED4801682F
:102DF0001C311C2000F0E2FDEA490968097F8906C0
:102E0000090EEA4A505800F087FC04E0FF21E5482B
:102E1000006820300171E3480068203001792420E7
:102E200000F0E2FE0021DF4800682030C177DD4875
:102E30000068403001700222DA4801683F314020CA
:102E400000F0DAFED848807A012803D1062000F08D
:102E500099FB0EE0D3480068C07BD24909684873EB
:102E6000D0480068417B0D2000F0BEFE052000F038
:102E700089FBFF210131CE48FDF799F9CA48406925
:102E8000CC490860CC480068CC4908600220C4499D
:102E90000870D2E200F0B8FD01281DD1C6480068D4
:102EA000C6490860C048C07A01280ED1BD480168F3
:102EB0001C311C2000F082FDBA490968097F89068F
:102EC000090EBA4A505800F027FC4021122000F0A9
:102ED0008BFE0320B249087000F0AAFD01281ED124
:102EE000B5480068B5490860AF48C07A01280ED1DE
:102EF000AC4801681C311C2000F060FDA94909683C
:102F0000097F8906090EA94A505800F005FC0221E4
:102F1000122000F069FE00F0A3FAA9490870A24847
:102F2000807A01280BD1A4480068A4490968401A96
:102F3000A0490968884202D90420994908707CE2B6
:102F4000984801681231122000F038FD9548006859
:102F5000807C2021084020280DD1122000F044FE62
:102F60009148807A012802D18D49087002E0022040
:102F70008B49087061E207A9192000F01FFD68461F
:102F8000007F80210840002815D06846007FC0439C
:102F9000401C0006800E8B49087006E030E20BE210
:102FA0004AE200E2D8E15EE157E10846007840429B
:102FB00040B2087004E06846007F801081490870C4
:102FC00079480068804988424FD27E4800214156A6
:102FD00000292ADA014600200856FDF7A3FB0591D7
:102FE000049071484079C000784908180468224666
:102FF000436800207649FDF7ADFA0022754B019138
:103000000090FDF7F5F906460022734BFDF7F0F945
:1030100003910290059B049AFDF7EAF90791069047
:10302000FDF73AFC6D4908606CE05E4801681A31B2
:103030001A2000F0C3FC5B490968887EFDF786FB17
:1030400004460D4658484079C0006549081806688E
:103050003246436820462946FDF7CAF90791069093
:10306000FDF71AFC5D4908604CE0564800214156C6
:1030700000292ADA014600200856FDF753FB059186
:10308000049049484079C000504908180668324603
:10309000436800204E49FDF75DFA044600224D4B7F
:1030A000FDF7A6F900224F4B01910090FDF7A0F922
:1030B00003910290059B049AFDF79AF907910690F7
:1030C000FDF7EAFB454908601CE0364801681A3103
:1030D0001A2000F073FC33490968887EFDF736FB3F
:1030E00006460B4630484079C0003F49081803C8DF
:1030F000324607910690FDF77BF90446FDF7CCFBBD
:10310000364908602848807A01282FD12548006870
:10311000C07B24490968487322480068417B0D2020
:1031200000F062FD2048407A01280DD11D4800685A
:10313000203080782D4908801A4800682030817836
:103140001B4800F08FFC7BE0164801681331132008
:1031500000F034FC13480068C07C24490880114802
:103160000068C17C124800F07DFC69E00D480168F0
:103170001031102000F022FC0B48407A012842D187
:1031800008480068203080781849088005480068A1
:10319000007C04490968487302480068417B27E0C5
:1031A0000C01002008010020EC000020005D000858
:1031B000B803002020010020880000201C0100200E
:1031C0001801002010010020008F4233105C00081D
:1031D0000000244000C065C0000010401401002021
:1031E000605C000800001840B05C00080E01002080
:1031F0000D2000F0F9FC9348006820308178924857
:1032000000F030FC1CE08F4801681331132000F0FF
:10321000D5FB8C480068C07C8C49088089480068D0
:10322000007C88490968487386480068417B0D2006
:1032300000F0DAFC83480068C17C834800F012FC8F
:103240008348807A012802D18249087002E0022076
:103250008049087002200890EFE001207D49087045
:1032600003200890E9E0012000F08CF97848C07A4A
:10327000012819D1F5207349096848747448017B05
:1032800070480068203001716E4801681C311C20B4
:1032900000F094FB6B490968097F8906090E6E4AA4
:1032A000505800F039FA08E0F72066490968487478
:1032B00000216448006820300171624800682030B5
:1032C0000179242000F090FC5E480068417C1120C8
:1032D00000F08AFC614801785A480068203081700B
:1032E0005848006820308178222000F07DFC0020C2
:1032F00054490968887353480068817B0E2000F0A8
:1033000073FC50480068807B4E49096848734D48FB
:103310000068417B0D2000F067FC4A4800682030BF
:103320008178494800F085FC4121464800682030FA
:10333000C177402143480068403001700222414873
:1033400001683F31402000F057FC032000F01AF9DB
:1033500006204049087070E000F056FB012806D1B5
:103360000821122000F040FC07203A49087000F0C4
:103370005FFB012816D13648C07A01280ED13148AA
:1033800001681C311C2000F019FB2E490968097FD7
:103390008906090E304A505800F0BEF90221122069
:1033A00000F022FC49E0012000F0ECF8002029495F
:1033B00008700420089040E0012000F0E3F8FA20B3
:1033C0002049096848741F480068417C112000F0BA
:1033D0000BFC00211B4800682030C17719480068A9
:1033E000403001700222174801683F31402000F050
:1033F00003FC072000F0C6F80A20164908701CE0FC
:1034000000F020FB012816D10421122000F0ECFB73
:1034100000F020FB012809D10121122000F0E4FB7B
:1034200001200C4908700820089004E00020094998
:1034300008700720089000E000BF00BF089809B09E
:10344000F0BD000008010020B80300200E0100209C
:10345000EC0000200C010020005D00082401002089
:1034600010B5054801680C310C2000F0A7FA02489D
:103470000068007B401110BD0801002010B5034812
:1034800001684131422000F099FA10BD0801002086
:1034900010B504460C4801681D311D2000F08EFA5D
:1034A00009480068407FF12108406100084306494F
:1034B0000968487704480068417F1D2000F094FBAC
:1034C0000248C47110BD000008010020EC0000207B
:1034D00010B504460B4801681D311D2000F06EFA3E
:1034E00008480068407FFE210840204305490968DC
:1034F000487704480068417F1D2000F075FB0248B2
:10350000447210BD08010020EC00002010B50446F4
:103510000C4801682631262000F050FA094800685E
:1035200020308079F7210840E10008430549096807
:10353000203188710348006820308179262000F00E
:1035400053FB10BD0801002010B504460C4801686B
:103550003031312000F032FA094800682030007C18
:10356000F8210840204306490968203108740448BE
:1035700000682030017C312000F036FB10BD0000D7
:103580000801002070B50446002514480068407802
:10359000F8218843124908700846007884421CD0FC
:1035A000032C01D1012500E000250E48007885425A
:1035B00004D00C480570284600F044FB074800681A
:1035C0004078F821084020430449096848700348BE
:1035D00000684178012000F007FB70BD0801002061
:1035E000260100202701002010B504460A48016882
:1035F0000931092000F0E2F907480068407A4006E6
:10360000400E204304490968487203480068417A23
:10361000092000F0E9FA10BD0801002010B50446A9
:10362000134801684C314D2000F0C8F9104801687A
:103630000931092000F0C2F90D480068407A802164
:103640000840802807D1012C0AD18721084800684A
:103650004030017304E08421054800684030017364
:10366000034800684030017B4D2000F0BDFA10BDDA
:103670000801002010B504460C4801681E311E20C8
:1036800000F09CF909480068807FFB210840A100F8
:10369000084306490968887704480068817F1E202E
:1036A00000F0A2FA0248047210BD000008010020D8
:1036B000EC00002010B504460648006820308470F5
:1036C0000448006820308178222000F08DFA0248FA
:1036D000047610BD08010020EC00002010B504465F
:1036E00002220C4801682031202000F070F92004EB
:1036F000010E08480068203001700648006820303C
:1037000044700222034801682031202000F074FA3E
:1037100010BD0000080100207CB506461148066077
:103720003046FDF713F8044600220F4BFCF77AFFF2
:1037300001910090FDF76AF806463002000E0B4931
:10374000096888713004000E08490968C871074982
:1037500009680E72032205480168891D062000F0E1
:103760004BFA7CBDEC00002080844E400801002014
:1037700010B504463C4801680931092000F01EF9E3
:10378000394801684C314D2000F018F9364800687E
:10379000407A8021084080283FD13348006840307B
:1037A000007B8721084087281BD1052C00DA0524DF
:1037B000142C00DD14242C480068407A8F21084026
:1037C000703029490968487227480068407AF0211A
:1037D0000840611F0907090F084323490968487217
:1037E00038E0022C00DA0224112C00DD11241E48DE
:1037F0000068407A8F21084070301B490968487280
:1038000019480068407AF0210840A11E0907090FF5
:1038100008431549096848721CE00020C0438442EF
:1038200000DA04460E2C00DD0E240F480068407AB2
:103830008F21084070300C49096848720A480068B6
:10384000407AF0210840611C0907090F0843064926
:103850000968487204480068417A092000F0C4F9F8
:103860000248047110BD000008010020EC00002097
:1038700001490870704700000C01002010B5044693
:103880000C4801681D311D2000F098F809480068B7
:10389000407F0007000F2101084306490968487767
:1038A00004480068417F1D2000F09EF902484471E1
:1038B00010BD000008010020EC00002010B50446F7
:1038C0000C2C01DD0C2402E0062C00DA0624062C68
:1038D00003D10520FFF738FE02E00320FFF734FE96
:1038E0000C4801681E311E2000F068F80948006885
:1038F000807F0007000F2101084306490968887787
:1039000004480068817F1E2000F06EF9024884712F
:1039100010BD000008010020EC00002010B5044696
:1039200002220E4801681E311E2000F050F80B489C
:103930000068807FFC2108402112FC22914308434B
:1039400006490968887705490968CC770222034847
:1039500001681E311E2000F04FF910BD0801002043
:1039600070B504460D460A48C07A002802D10948BD
:10397000058002E0FF2007490880064802882146AA
:103980000548FCF7FBFB05200449087070BD0000EA
:10399000EC00002024010020B80300200C010020CE
:1039A00010B505480078002802D1FEF73BFD10BD98
:1039B000FFF7F4F9FBE700006600002070B504464D
:1039C0000D4601222946204600F001F870BDF8B5E9
:1039D00005460E461746102105200007FEF763F83E
:1039E0006806400E00F054F9002405E0002000F0C5
:1039F0004FF93055601CC4B2BC42F7DB10210520E2
:103A00000007FEF791F8F8BD10B5012149030248FF
:103A1000FEF73CF8C0B210BD0008005010B50121FF
:103A200089030248FEF732F8C0B210BD000800500A
:103A300010B50121C9030248FEF728F8C0B210BD35
:103A40000008005010B5012105200007FEF71EF800
:103A5000C0B210BD10B5022105200007FEF716F810
:103A6000C0B210BD70B504460D462A46214600205E
:103A7000FFF7ADFF70BD10B5012000F067F80A2018
:103A800001F048FA002000F061F80A2001F042FA43
:103A900010BD000010B5044628480078A04200D1AF
:103AA00010BD2648047026480470007801282AD1E9
:103AB0000020FFF767FD2348006840784006400E6D
:103AC00080302049096848701E480068417801200C
:103AD00000F08AF80120FFF755FD00211948006821
:103AE0002030C17717480068403001700222154825
:103AF00001683F31402000F07FF86F221249012019
:103B0000FFF765FF18E00020FFF73CFD0D48006857
:103B100040784006400E0B49096848700948006823
:103B20004178012000F060F80120FFF72BFD6F22A3
:103B300005490120FFF74BFF00BFB1E767000020F8
:103B400066000020080100204902002010B586B060
:103B50000446012C10D120200090012001900290F9
:103B600000200390049069460C48FDF707FF2021D0
:103B70000A48FDF798FF0FE02020009001200190F7
:103B8000029000200390049069460448FDF7F6FE79
:103B900020210248FDF7C8FF06B010BD0004005008
:103BA00070B504460D4607480078002804D1294620
:103BB0002046FEF7B7FF03E029462046FFF7D0FE78
:103BC00070BD00006600002010B50648007800288F
:103BD00003D10120FEF7A0FF02E00120FFF748FE1D
:103BE00010BD00006600002013B50446012201A9A3
:103BF000204600F001F81CBDF8B505460E461746F4
:103C0000102105200007FDF74EFF802129430846BB
:103C100000F03EF8002404E0305D00F039F8601C4C
:103C2000C4B2BC42F8DB102105200007FDF77CFF81
:103C3000F8BD70B504460D462A4621460020FFF720
:103C4000DBFF70BD10B50446002C02D000F012F866
:103C500001E000F001F810BD10B501210448FDF7A6
:103C600063FF012149020248FDF71DFF10BD00005E
:103C70000004005010B501210448FDF714FF012194
:103C800049020248FDF750FF10BD0000000400503B
:103C9000014600BF00BF0D48806802221040400866
:103CA0000028F7D00948017300BF00BF00BF0748D4
:103CB0008068C007C00F0122504050400028F5D056
:103CC00000BF0248C068C0B2704700000030014029
:103CD00008B501207049C96A01436F4AD162114693
:103CE000C96A0140009100BF00BF022220210520C7
:103CF0000007FDF71BFF0022202105200007FDF72C
:103D0000D4FE0222202105200007FDF74BFF0222EE
:103D1000202105200007FDF72BFF0222802105202E
:103D20000007FDF703FF0022802105200007FDF7B3
:103D3000BCFE0222802105200007FDF733FF02228E
:103D4000802105200007FDF713FF022240210520F6
:103D50000007FDF7EBFE0022402105200007FDF7DC
:103D6000A4FE0222402105200007FDF71BFF0222CE
:103D7000402105200007FDF7FBFE01221021052050
:103D80000007FDF7D3FE0022102105200007FDF7F4
:103D90008CFE0222102105200007FDF703FF0222FE
:103DA000102105200007FDF7E3FE1020052109077B
:103DB000886100BF00023849496B0143364A5163AC
:103DC0001146496B0140009100BF00BF08203349F4
:103DD0000968382291430143304A116000BF002036
:103DE0001146096831229202914301432B4A116026
:103DF00000BF00BF1146096849084900014311602E
:103E000000BF00BF11460968022291430143234AC3
:103E1000116000BF00BF1146096880229143014331
:103E20001E4A116000BF00BF11460968D2149143B9
:103E300001431A4A116000BF501511460968024635
:103E400091430143154A1160114649680422914388
:103E5000020C1143114A516000BFFF20053011468A
:103E600009680246914301430C4A116000BF0720D4
:103E70001146086100BF00BF0846006849140843A6
:103E80001146086000BF00BF084600684021084393
:103E90001146086000BF08BD00100240003001401C
:103EA00010B500F009F803480068401C014908609B
:103EB00010BD00008800002010B5002406E0E100DD
:103EC000114A881801F06CF8601CC4B2042CF6DBAF
:103ED0000E480068401C0D490860084600680C49FF
:103EE000884202D10020094908600A480068401C45
:103EF000084908607D21C900884204D30020054993
:103F00000860FDF7DDF910BDFC0500202801002048
:103F1000FFFFFF7F2C01002008B500BF4448006868
:103F20000121090688434249086000BF0120414938
:103F30000968814301433F4A116000BF00BF3C480C
:103F40000068911508433A49086000BF00BF00BFF0
:103F500037480068012149020840400A0028F6D08D
:103F60000520400332494968072252039143014327
:103F70002F4A516000BF0020114649680902090A12
:103F8000020611432A4A516000BF00BF1146C968AA
:103F9000F02291430143264AD16000BF00BF114681
:103FA000C968890889000143D16000BF00BF00BF14
:103FB0001F48C0680C2108400028F8D100BF1C49E8
:103FC000C9680722120291430143194AD16000BF18
:103FD00000BF1146C9680722D20291430143144A27
:103FE000D16000BF00F02CF813480068FDF7B2FE66
:103FF000012000070E49896B01430D4A9163114668
:10400000896B0140009100BF00BF0320C0020B4933
:104010000968024691430143084A116000BF01202C
:1040200000070349896B8143014A916300BF08BDC2
:1040300000100240002002403401002000700040C7
:10404000F8B50025002400260020009000273A48FB
:10405000C0680C2108400546002D06D0042D11D063
:10406000082D1ED00C2D4CD11FE03348406807218D
:1040700049030840470B781C01218140C8032F49A0
:1040800008604BE02E482D4908602B48006810213D
:104090000840002804D029480068800827490860A3
:1040A0003CE028482549086038E02348C0680F21D3
:1040B0008904084004462048C06803218905084057
:1040C0000646A00C20490C5CB00D461C1A48C0687E
:1040D00001210904084000900098002808D11849DF
:1040E000614308463146FCF703F81449086007E0CD
:1040F0001449614308463146FBF7FAFF0F4908604F
:104100000CE00D484068072149030840470B781C24
:1041100001218140C8030949086000BF00BF06486B
:10412000C068F0210840000908490D5C0348006898
:10413000E84002490860F8BD001002403401002048
:104140000024F40000127A00E45D0008CC5D000851
:1041500015480068FF2101310843134908600846EB
:10416000C068124908401049C860084600681049F4
:1041700008400D4908600846806840084000886093
:1041800008460068012189048843074908600846F9
:10419000C068FD21090488430349C8600020086104
:1041A000C803044988607047001002400C40FF8833
:1041B000F6FFF6FE00ED00E070B504460D460AE09D
:1041C00021780848FDF782FE00BF0648FDF73DFE56
:1041D0000028FAD0641C2846691ECDB20028EFD111
:1041E00070BD00000038014000B589B00120FDF726
:1041F00001FD0222110205200007FDF7A4FC0422A4
:10420000D10105200007FDF774FC022211020520F0
:104210000007FDF7D4FC0022012149020520000718
:10422000FDF79EFC0122510205200007FDF7ADFCC1
:104230000222510205200007FDF785FC042211022D
:1042400005200007FDF755FC02225102052000075A
:10425000FDF7B5FC00220121890205200007FDF7CA
:104260007FFC0122910205200007FDF78EFC07214B
:104270001B20FDF707FF1B20FDF782FE01208003B6
:104280001849496B0143174A51631146496B014074
:10429000019100BF00BF03200004FDF74FFDE120A6
:1042A0004002029000200390049005900C2006909C
:1042B00000200790089002A90B48FDF75BFD0A4813
:1042C000FDF74EFD00BF0848FDF7C5FD0028FAD0F8
:1042D0000548FDF7ADFD0028F5D00348FDF745FD85
:1042E00009B000BD001002400038014010B51E4862
:1042F000FDF7A5FD002836D000BF1B48006820212F
:104300000840400900282ED000BF1748406AC4B2B8
:1043100000BF2146002001F099FB144800780028D6
:1043200004DD12480078401C104908700D2C06D19D
:104330000F4804700D480078401C0C4908700B4869
:10434000007802280FD10A484470002007490870FD
:10435000074800780D2806D1054840780A2802D180
:1043600001200449087010BD00380140620000209F
:10437000600000203001002000B589B00120FDF769
:1043800039FC0222042105200007FDF7DCFB042292
:10439000114605200007FDF79AFB022204210520A3
:1043A0000007FDF70CFC0022042105200007FDF7A3
:1043B000D7FB0122042105200007FDF7E6FB0222BE
:1043C000082105200007FDF7BEFB04220821052077
:1043D0000007FDF77CFB0222082105200007FDF7FE
:1043E000EEFB0022082105200007FDF7B9FB0122A2
:1043F000082105200007FDF7C8FB04211C20FDF75C
:1044000041FE1C20FDF7BCFD012040041849896BCA
:104410000143174A91631146896B0140019100BF26
:1044200000BF03208004FDF789FC4B20C0010290EF
:1044300000200390049005900C2006900020079027
:10444000089002A90B48FDF795FC0A48FDF788FC87
:1044500000BF0848FDF7FFFC0028FAD00548FDF72B
:10446000E7FC0028F5D00348FDF77FFC09B000BD4C
:10447000001002400044004010B500BF2B48C06946
:1044800008210840C008002808D000BF2748406A1B
:1044900000BF08202549086200BF00BF2348FDF780
:1044A000CEFC002840D000BF2048406AC4B200BF04
:1044B000242C0ED11E48007C00280AD11D490880FA
:1044C000084601880088401C1A4A10801A48445443
:1044D00023E01748007C00281FD116480188008877
:1044E000401C144A1080144844540078242814D1E5
:1044F000114800794D2810D10F48407943280CD13C
:104500000A2C0AD110460178094820304176012151
:104510002038017400201146088006480088C82809
:1045200002DBC8200349088010BD000000440040A1
:10453000C005002064000020B804002010B5044627
:10454000FF2020701220A0706070074A07CA231D48
:1045500007C300F0EDFE20821121601CFCF7C8FFAC
:10456000A074F020E07410BDFC0100200FB410B561
:1045700003A9044B044A029800F004F910BC08BCDB
:1045800004B018470D530008380100202021020C08
:1045900001D010211046020A01D010460839020944
:1045A00001D01046091F820801D01046891E42081A
:1045B00001D0881E7047081A704730B47446641ED4
:1045C0002578641CAB4204D3635D5B00E31830BC08
:1045D00018471D46F8E700000048704744010020D6
:1045E00001480068704700004401002002E008C84C
:1045F000121F08C1002AFAD170477047002001E05D
:1046000001C1121F002AFBD1704780F31088704748
:10461000014908607047000044010020F0B51FB454
:1046200084B007980699020D014314D04A484B49BB
:104630001018484305140F9801280E981CD0281A0A
:10464000401C0024464E47490094019102900028E6
:1046500014DA474227E00F98012443A3012808D029
:10466000002104980F9A84600360C260416009B021
:10467000F0BD0E98C143F4E74042E2E7074612E07E
:10468000F80707D02246334601990098FBF762FFEE
:10469000019100902246334610461946FBF75AFF17
:1046A00004460E467F10002FEAD10298019B002895
:1046B000009A0799069802DAFBF74CFF01E0FBF736
:1046C000B1FF04460E460022284BFCF7BDFA03D882
:1046D0000020C043014607E00022254B204631461A
:1046E000FBF786FEFCF790FA102409E0002C0ADBA9
:1046F0000A220023FBF712FD059B30321A55641E77
:1047000002460A43F2D11122641C059B121B1C199C
:104710000F9B012B03D0012308430ED10AE008436D
:1047200004D011200E9000200F9084E70E98151AE7
:104730006D1E0BE00E98824202DD00236D1C03E02B
:10474000824201DA00236D1E002BEED004980F99EF
:104750008260C16030C08AE701FCFFFF104D00009D
:10476000000024400000F03F300000000000F04353
:104770000000E03F30380A2801D2012070470020B5
:1047800070470000FFB597B00646002518E22528BF
:1047900077D100242746FD49049400E00443761CA9
:1047A00032780120203A90400842F7D130782A2808
:1047B0000ED00222307801463039092916D80499E2
:1047C0000A235943303940181443761C0490F1E70A
:1047D000189802C804911890002904DA01204003B7
:1047E00004434842049002200443761C30782E286B
:1047F00014D1042004437078761C2A2809D1189813
:10480000761C80C8189009E00A214F43303FC71931
:10481000761C3078014630390929F5D930786C2872
:1048200010D006DC4C281AD068280ED06A2817D180
:1048300004E0742813D07A2812D110E0012040053A
:1048400004430CE00121090501E0032109050C43A3
:104850007178814203D1012000052418761C761C52
:104860003078119066280BD013DC58287DD009DCF5
:1048700000287BD04528F6D04628F4D047281AD106
:10488000A5E118E0632835D0642870D0652812D1DE
:104890009DE170286CD008DC6728F1D069287BD0B6
:1048A0006E280DD06F2806D1BAE073282ED0752857
:1048B00071D0782859D01A9A199990476D1C7EE1C9
:1048C0006002400F022809D003280DD00428189850
:1048D00001680DD00D60001D189070E11898EA175E
:1048E00001680D604A60F6E7189801680D80F2E7EC
:1048F0000D70F0E718986A4601781172001D189043
:104900000020507202A80090012005E0189802C80B
:10491000189000200091C04361070DD5002101E0EF
:104920000199491C0191B94212DA8142F8DB009ADF
:10493000515C0029F4D10BE0002101E00199491CF0
:1049400001918142FADB019A0099895C0029F5D135
:10495000019904981A9B471A21463846199A00F083
:1049600097FA0199401945180BE04FE02CE113E04C
:104970004EE0009800990078491C00911A9A199904
:1049800090470198401E0190401CF2D121463846C4
:104990001A9B199A10E137E00A200021009001913A
:1049A0006002410F022907D0189A01CA1892C21753
:1049B0009446032908D00AE01898C01DC108C90010
:1049C00005C91891944607E000B2C217944604291D
:1049D00002D140B2C1178C4600226146944506DAE6
:1049E0000A460021404291418C462D2102E02105DA
:1049F00004D52B216A461173012103E0E10701D0A0
:104A00002021F7E7029155E00A200AE0102008E093
:104A1000102000900021042004430191082703E0A6
:104A200008200021019100906002410F022907D067
:104A3000189A01CA189200229446032908D008E067
:104A40001898C01DC108C90005C91891944603E013
:104A500080B2042900D1C0B200210291210729D5DA
:104A60001199702906D0009A1021019B4A401A43DF
:104A700005D00EE040216A461173012108E061462D
:104A8000014306D030216A461173119951730221F6
:104A90000291009A0821019B4A401A430AD16146BB
:104AA000014301D1610705D530216A461173012107
:104AB0007F1E02911199582904D035A10E910DA99C
:104AC0000D910DE037A1F9E76146019B009AFBF7D4
:104AD00025FB0E9B8C469B5C0D9A521E0D9213700B
:104AE00061460143F0D10D9805A9081A20300190C4
:104AF000600703D501200004844300E001270198EA
:104B0000874201DD381A00E0002001990090411829
:104B1000029809180498401A0490E00306D421462C
:104B20001A9B199A049800F0B3F94519002706E07A
:104B300003A81A9AC05D199990476D1C7F1C0298B2
:104B40008742F5DBE0030CD521461A9B199A04989D
:104B500000F09EF9451904E01A9A302019999047FF
:104B60006D1C0099481E00900029F5DC08E00D98A6
:104B70000D990078491C0D911A9A199990476D1C4E
:104B80000199481E01900029F1DC63E10928010028
:104B900030313233343536373839616263646566B3
:104BA0000000000030313233343536373839414275
:104BB000434445460000000000F05AF94519761CB0
:104BC0003078002800D0E2E528461BB0F0BD600731
:104BD00000D406271898C01DC108C90048680A6893
:104BE0000831C30FDB071891190001D09CA108E020
:104BF000210501D59BA104E0E10701D09AA100E0C5
:104C00009AA1430011985B08109165280CD006DC2E
:104C1000452809D046281DD0472841D141E06628C3
:104C200018D067283CD13CE00021112F01DB112076
:104C300000E0781C0191009008A911A8FFF7EEFC94
:104C4000139905910021119A15927F1C12980197D2
:104C5000009150E00120C00703900120019008A9B5
:104C6000009711A8FFF7DAFC139A14990592002215
:104C7000119B009212981593059A0192002901D078
:104C8000104602E0791C40180190381A01D50198AD
:104C900004E04042401E0090781C0190C01B02902E
:104CA00043E0012F00DA01270021112F01DD11203F
:104CB00000E038460191009008A911A8FFF7AEFC6A
:104CC00013990591119A002112981592009101975C
:104CD00021070CD40599B94201DB019900E001914B
:104CE000012904DD159A491E515C302906D0B842CD
:104CF00001DA011D05DA0121029115E00199491E31
:104D0000EDE7002805DC0099411800910199091A86
:104D100003E0019A411C914200DD01910099401A83
:104D2000401C02900120C0070390200706D402997E
:104D30000198814202DB0020C043029000206946B6
:104D4000C87707AF012103980337C907884224D0E9
:104D5000022011902B201290039800280CDA404278
:104D600003902D20129007E00A210398FBF7C0F969
:104D700030317F1E039039701199481E119000291F
:104D8000F2DC03980028EFD1791E12980870307871
:104D9000202108404530BF1E387006A8C01BC01D2A
:104DA000039010980078002800D001200199411844
:104DB0000298C0170918039809180498401A401E51
:104DC0000490E00306D421461A9B199A049800F037
:104DD0005FF8451910980078002803D01A9A19999D
:104DE00090476D1CE00324D521461A9B199A04981C
:104DF00000F04EF845191CE00098002807DB0099E8
:104E00000598884203DD1598405C199901E01999CD
:104E100030201A9A904700986D1C401C0090029810
:104E2000401E0290002804D11A9A2E20199990470A
:104E30006D1C0199481E01900029DDDC05E03878E1
:104E40001A9A7F1C199990476D1C0399481E03906C
:104E50000029F4DC21461A9B199A0498ACE600005C
:104E60002D0000002B0000002000000000000000CA
:104E7000F8B5044600251E461746880404D405E00C
:104E800039462020B0476D1C641EF9D52846F8BD70
:104E9000FFB50446002581B01E46C80301D5302762
:104EA00000E02027880404D505E038460399B04780
:104EB0006D1C641EF9D5284605B0F0BD30B583B031
:104EC0000446FFF78DFB0546002000900246019046
:104ED00021466846FBF74BFD2846FFF799FB0199F1
:104EE000009803B030BD00000146042901DB00201A
:104EF0007047C800064A80180079012806D10020B2
:104F0000CA00034BD21810710120F1E70020EFE72F
:104F1000FC050020012800D8022072B6074908606D
:104F20000021064A117162B604E004490979012999
:104F300000D100E0F9E700BF70470000FC05002049
:104F400070B5002408E00020E100114A5050E10053
:104F500089180871601CC4B2042CF4DB7D21C900DF
:104F60000C480068FBF7C4F80546681E0A498842E9
:104F700000D90CE0681E094948610321081FFDF7AC
:104F800045F80020054988610720086100BF70BD11
:104F9000FC05002034010020FFFFFF0000E000E0DE
:104FA0000179002909D10168002906D00168491E4C
:104FB0000160002901D101210171704770B50446DB
:104FC0000D46042C00DB70BD0120FFF71EFBE00046
:104FD00005490D500020E100034A89180871FFF7C8
:104FE00014FB00BFEFE70000FC050020F0B56A4BA2
:104FF0009D446A480078012870D1002067490870F4
:1050000000F0F2FCC0B266496944086108690A28E8
:1050100006DD002000F0C6FC62A0FFF7A7FA06E05C
:105020005F486844011D0269002000F037FD624EB0
:105030006E44002000F0B6FCF079B179000208431C
:105040005E49884272D170783178000208435C4A28
:10505000811A90426BD011DC5A494018002867D061
:10506000FF38FF380238002816D0FF3801380028F2
:1050700025D003214902401A7AD11EE00520000202
:10508000081A11D0FF38FF380238002816D0FF3830
:10509000013800286CD169E04BA0FFF767FA56A0F1
:1050A000FFF764FAFDF72AF853A0FFF75FFA7D20B7
:1050B000C000FFF72FFFFDF721F862E061E0B01CB0
:1050C000FBF7B4F80546022D33D315D156480088B6
:1050D000564909884018802805DD00E058E054A0B2
:1050E000FFF744FA3FE050480088504A1288811880
:1050F00059A0FFF73BFA36E04B4800884B49098836
:105100004118A81EC001081A07B2802F03DD57A05E
:10511000FFF72CFA27E0002F04DD39464EA0FFF7F9
:1051200025FA20E05AA0FFF721FA1CE02AE01CE053
:105130001DE0002414E001A8015D5CA0FFF716FA51
:10514000601CC117090F091809110901411A05D17D
:10515000002C03DD611C57A0FFF708FA601C84B225
:105160000F488442E7DB0CE002E00AE009E008E0D7
:105170007078327800021043014650A0FFF7F6F92C
:1051800000BF05E056A0FFF7F1F9002000F00AFC8F
:10519000094B10339D44F0BDECEFFFFF30010020C0
:1051A00000100000636D6420627566206F76657282
:1051B000666C6F77210D0A00041000000D0A0000D4
:1051C000234D0000DDBCFFFF6465627567436D64BD
:1051D00048616E646C65723A204572617365642043
:1051E0007468652065787465726E616C20666C61A8
:1051F00073680D0A000000006465627567436D64A2
:1052000048616E646C65723A205265736574204320
:1052100050552C2077616974696E67202E2E2E2ED2
:105220002E2E2E0D0A0000001C000020220000205F
:10523000486973746F72795258436E743E313238D4
:105240002E446973706C6179205265636F72643AA1
:105250003132380D0A000000446973706C617920A6
:105260005265636F72643A25640D0A0052656D6180
:10527000696E436E743E3132382E446973706C61CE
:1052800079205265636F72643A3132380D0A00003A
:105290005468697320736563746F72206861736EFC
:1052A00027742064617461210D0A00002530325892
:1052B000200000003A2025640D0A0000556E6B6F37
:1052C0006E7720737570706F7274656420636F6D94
:1052D0006D616E643A20253034580D0A00000000DC
:1052E000636D64207461696C20657272210D0A001F
:1052F00010B50446214602A0FFF738F910BD0000A2
:105300004552524F5225640D0A00000070B5044604
:105310000D46E1B20548FCF7D9FD00BF0348FCF794
:1053200094FD0028FAD0204670BD000000380140EE
:1053300070B5FCF729FA0446074961430846074956
:10534000FAF7D6FE0E21484306460B21FAF7D0FEA7
:1053500085B2284670BD0000E40C0000FF0F00007D
:105360008EB0342101A8FAF722FFB44C00BFB44834
:105370004068072149030840400B401C012181403F
:10538000C803B0490860FEF7C7FD00F097FAFBF7C5
:10539000EBFFAD48FCF7C0FAFCF7CCFEFCF7DAFFF8
:1053A000AA490860096808688047A84909688868A8
:1053B000804764210320FFF701FE3EE10320FFF751
:1053C00093FD01287ED164210320FFF7F7FDA0485B
:1053D0000068401C9E490860FBF7D8FF9D48FCF719
:1053E00017F800F09DF99C480078012814D1FFF7C8
:1053F0007BFD012810D1010305200007FCF74FFBBE
:1054000000209549087000219448417420300176AD
:1054100093490220FFF7D2FD8F48007800280CD175
:105420000220FFF761FD012807D1010305200007D5
:10543000FCF774FB0020884908700A218448006842
:10544000FAF756FE002979D186480068401C854944
:1054500008608248407C012812D180482030007EBC
:1054600000280DD1012149037F48FCF757FB642038
:10547000FFF750FD012149037B48FCF710FB13E0C7
:105480007648407C01280FD174482030007E0128E6
:105490000AD171480078002806D174490120FFF72D
:1054A0008DFD01206C49087003216E480068FAF7F1
:1054B0001FFE002922D16E48007801281ED16D48B8
:1054C000006800E03AE0FBF74FF905B2684803785E
:1054D0002A466948002141566848FCF711FD202101
:1054E0006648FEF769FE5948006820210269634852
:1054F00090470121C9035C48FCF710FB052159487E
:105500000068FAF7F5FD00290FD15D480078012801
:105510000BD181035448FCF701FB6420FFF7FAFC30
:10552000012189035048FCF7BAFA19214D48006857
:10553000FAF7DEFD002901D1FBF7F2FE43490968C5
:1055400048698047022802D004286FD15FE03F48B5
:1055500000684C49C268394890472078FF2851D1EB
:10556000607CF0284ED16078401EC1B2601CFBF711
:10557000BFFF0746217CB94203D043A0FEF7F6FFE8
:1055800040E0A07811281FD10C222F49201DFAF7E6
:105590002DFE002829D137480068FBF7E5F805B251
:1055A00001232A463448002141563448FCF7A8FC20
:1055B0002648006820210269304890470121C9032C
:1055C0002948FCF7ABFA10E0A07812280DD1314839
:1055D000FEF7B4FF1D480068142102692D4890476A
:1055E0000121C9032048FCF799FA22480068FBF71B
:1055F0002BF905462A460B461F480021415626A096
:10560000FEF7B4FF80210D48FAF7D1FD0FE01848EE
:105610000078002803D10D49096888688047012176
:10562000C9031148FCF73BFA01E0FFE700BF00BFE8
:10563000FFF7DCFC0120FFF76DFCBFE67C010020DA
:105640000010024054000020FC01002058000020FF
:10565000440000208300002041000020C0050020FD
:10566000C0D40100480000200004005010270000B2
:1056700040000020140100201001002048010020FB
:105680003F00002000000020636320657272210D3E
:105690000A00000068010020534E523A256464421B
:1056A0002C20525353493A25302E326664426D0DF8
:1056B0000A000000F0B50B30C108C900144F0026E5
:1056C000144A0FE003688B420BD38B4205D95C1A56
:1056D0004318456830C3083B00E04368136002C0CC
:1056E00004E0021D10680028ECD13046002803D1E8
:1056F0003868002801D00020F0BD064A0648106036
:10570000064A121AD208D20044C001203860D7E7F6
:10571000400100203C0100204C06002048080020E9
:10572000F8B500263B48007C002871D0394820306D
:10573000427E39496038FAF721FD0021354801746D
:105740004038FEF713FF00BF60E0002E0AD133A1FE
:1057500030484038FAF736FD040055D10120FFF7F4
:10576000C7FD51E0641C2DA12046FAF72BFD050072
:1057700047D03300FEF721FF072E050C1219202712
:105780002E002A1B214623481230FAF7F7FC22E0AC
:105790002A1B21466846FAF7F1FC1CE02A1B214629
:1057A0001C481D30FAF7EAFC15E02A1B214619486F
:1057B0002830FAF7E3FC0EE02A1B214615482A3070
:1057C000FAF7DCFC07E02A1B214612483630FAF7CC
:1057D000D5FC00E000BF00BF2C4601210D484174FC
:1057E00068460078412803D10A482030017607E056
:1057F00068460078562803D10021064820300176FB
:1058000002E00220FFF774FD701CC6B2062E9CDD7C
:10581000F8BD0000C0050020B80400202C000000E6
:10582000F0B513B406460199FBF7B0F904460D46EE
:1058300002460B4630460199FAF77EFE064601986D
:105840001B4B0F4600280CDA00223046FBF710F8FD
:105850000CD90022174B30463946FBF7F5F91DD21B
:1058600014E000223046FBF703F808D20022124B66
:1058700020462946FAF760FE04460D460EE0002257
:105880000C4B30463946FBF7DFF907D800220A4BAC
:1058900020462946FAF7ACFD04460D46019A6900F8
:1058A0004908D20FD2072046114303B0F0BD0000D3
:1058B0000000E0BF0000E03F0000F03F10B5802096
:1058C00020490870002048700871487100211D4867
:1058D0008170C17000201B498872C8728020FFF758
:1058E000E9FE04461749891DFAF797FC1548801D03
:1058F000FAF789FC002805D1002113A0FEF736FE37
:10590000022010BD80211B480170002141700171EF
:1059100041718170C1708020FFF7CCFE04461549AB
:10592000891DFAF77AFC1348801DFAF76CFC0028F1
:1059300005D1002110A0FEF719FE0220E1E70020AA
:10594000DFE700001C06002055617274427566494D
:105950006E69743A4D61636C6C6F6320726561644B
:1059600020627566666572202564206661696C73C5
:105970000D0A0000340600205561727442756649B4
:105980006E69743A4D61636C6C6F632073656E640D
:1059900020627566666572202564206661696C7395
:1059A0000D0A000070B50546284600F01DF80646B1
:1059B00000BF0A20FFF7AEFA284600F015F80446AB
:1059C000B44200D02646A642F3D100210C20684301
:1059D000044A8018017141710C206843801881705D
:1059E000C17070BD1C06002030B5024600200C239B
:1059F0005343154C1919032A00D330BDCB788C784A
:105A00001B0223434C790D7924022C43A3420ADB69
:105A1000CB788C781B0223434C790D7924022C43DC
:105A20001B1B98B20EE0CB788C781B0223434C787A
:105A30000D7824022C431C194B790D791B022B4342
:105A4000E31A98B200BFD8E71C06002070B50546DF
:105A50000E460C20684310494418A01DFAF7D3FBEA
:105A6000E178A278090211434654E078A178000257
:105A70000843401C80B2A070000AE070E078A17872
:105A8000000208436178227809021143884202D15A
:105A90000020A070E07070BD1C060020FEB5074617
:105AA0000E4615460C207843444944186078217806
:105AB00000020843A84203DD002E01D0032F04D3C7
:105AC0003FA0FEF753FD0920FEBDE078A17800025B
:105AD00008436179227909021143884201D10320E8
